:020000040800F2
:10000000B8080020A9010008273C00083931000881
:10001000253C0008E90C000821450008000000000C
:10002000000000000000000000000000353E000855
:100030000512000800000000313C0008393E0008AD
:10004000C3010008C3010008C3010008C301000880
:10005000C3010008C3010008071200080D120008C0
:10006000C3010008C3010008C3010008C301000860
:10007000C3010008C3010008C3010008C301000850
:10008000C3010008C3010008B50B00080000000010
:10009000000000000000000000000000C301000894
:1000A000C3010008C3010008C3010008C301000820
:1000B000C3010008C3010008C3010008C301000810
:1000C000C3010008C3010008C3010008C301000800
:1000D000C3010008C3010008C301000800000000BC
:1000E000C3010008C3010008C301000800000000AC
:1000F000000000000000000000000000C301000834
:1001000000000000C3010008693F0008C3010008A7
:1001100000000000000000000000000000000000DF
:100120003D11000849110008C3010008C30100087F
:10013000C3010008000000000000000000000000F3
:10014000000000000000000000000000C3010008E3
:10015000C301000855110008C3010008014500084B
:10016000C3010008C30100080000000000000000F7
:10017000000000000000000000000000000000007F
:1001800000000000C30100080000000000000000A3
:10019000C3010008DFF80CD000F026FC004800473F
:1001A000ED6A0008B8080020064880470648004766
:1001B000FEE7FEE7FEE7FEE7FEE7FEE7FEE7FEE717
:1001C000FEE7FEE74D3F0008950100082DE9F05FCE
:1001D0000546002092469B468846064681464024B6
:1001E0001BE0284641464746224600F0ACF95346FC
:1001F0005A46C01A914110D311461846224600F0C3
:1002000093F92D1A67EB01084F4622460120002181
:1002100000F08AF917EB00094E41201EA4F10104F9
:10022000DFDC484631462A464346BDE8F09FD2B25D
:1002300001E000F8012B491EFBD270470022F6E7CF
:1002400010B513460A4604461946FFF7F0FF20464C
:1002500010BD70B5064604F0B5F9046805460A22DB
:100260000021304600F091F92C6070BD2DE9FE4F61
:10027000804681EA0300C00F0C46009021F0004147
:1002800023F00045B8EB0200A94105D240462146C3
:1002900090461C460B46024623F00040104347D0D0
:1002A000270DC7F30A00C3F30A510290401A0190C8
:1002B00040286BDAC3F3130040F4801B0098924689
:1002C00020B10023D2EB030A63EB0B0B01985946D4
:1002D000C0F14002504600F027F906460D46504650
:1002E0005946019A00F03FF910EB080061410024E3
:1002F00087EA115284EAE7731A4340D0009A62B346
:10030000019A012A4FEA075215DC001B61EB02013A
:100310004FF0004202EA0752CDE90042001C41F5CD
:10032000801132462B4600F0CCF903B0BDE8F08FC7
:1003300040462146F9E7001B61EB0201001C41F534
:10034000801300185B412018A2F5001747EB03014A
:1003500040EAD570B6196D4111E06D084FEA3606D6
:1003600045EAC0754FEA0752001B61EB0201001C11
:1003700041F5801149084FEA3000001951413246D9
:100380002B4603B0BDE8F04F00F08CB90098012275
:1003900040000023D0EB020263EBE073009821469B
:1003A0004FEAE074B8EB000061EB0401E9E783F089
:1003B00000435BE781F0004158E72DE9FE4F81EAF9
:1003C000030404F0004421F0004100944FF0000BBE
:1003D00023F0004350EA01045ED052EA03045BD0EC
:1003E000C3F30A54C1F30A552C44A4F2F334019424
:1003F000A0FB0254C1F3130141F48011C3F31303B2
:1004000043F4801301FB024400FB034E840A970A65
:1004100044EA815447EA8357A4FB076802958D0A92
:1004200005FB07854FEA932C04FB0C542705029D1E
:100430004FEA065847EA1637B5EB08056EEB070C8E
:10044000870E920E47EA811742EA8312A7FB020148
:10045000B6EB0B0164EB00042B0D43EA0C335E1882
:1004600044EB1C50DA465146E7FB0201C5F3130486
:100470004FEA0B3343EA14534FEA0432019C43EA38
:100480000603A4F10C040294009CCDE900B400F032
:1004900018F903B0BDE8F08F00200146F9E700F03D
:1004A000004230F000400AD0C10D01F56071C0F388
:1004B000160042EA0151C20840071143704700206C
:1004C0000146704701F0004330B421F0004150EA8A
:1004D000010206D00A0DA2F56072C1F31301002AD1
:1004E00002DC30BC00207047440F44EAC104C10064
:1004F000E01830BC00EBC25000F07FB830B50B46BE
:10050000014600202022012409E021FA02F59D4243
:1005100005D303FA02F5491B04FA02F52844151E17
:10052000A2F10102F1DC30BD202A04DB203A00FAFE
:1005300002F1002070479140C2F1200320FA03F33A
:10054000194390407047202A04DB203A21FA02F038
:100550000021704721FA02F3D040C2F120029140FD
:10056000084319467047202A06DBCB17203A41FA88
:1005700002F043EAE07306E041FA02F3D040C2F130
:10058000200291400843194670472DE9F0479146F3
:100590000F4680460446002614F8015B2DB100F09A
:1005A00035FA0068405DC007F6D12B2D02D02D2D05
:1005B00018D0641E4A463946204600F02BFA27B16F
:1005C0003968A14201D1C7F8008071054FF00204DB
:1005D0000BD54042002803DD03F0F4FF0460A007C0
:1005E000BDE8F08746F48066E4E70028F8DA03F017
:1005F000E9FF04606FF00040F2E70029A8BF7047F0
:10060000401C490008BF20F00100704710B4B0FA48
:1006100080FC00FA0CF050EA010404BF10BC7047E3
:1006200049B1CCF1200421FA04F411FA0CF118BFFD
:10063000012121430843A3EB0C01CB1D4FEA0061CC
:100640004FEA102042BF002010BC704700EBC3509F
:1006500010440029A4BF10BC7047401C490008BFCB
:1006600020F0010010BC704710B541000CD0C0F361
:10067000C751962908DC7E2909DC06DB410204D03B
:1006800000F0004040F07E5010BD002010BDC1F1D0
:100690009604C4F1200100FA01F1E040FFF7ADFF3C
:1006A000A04010BD10B5141E73F1000408DA401C00
:1006B00041F1000192185B411A4301D120F0010081
:1006C00010BD2DE9F04D92469B4611B1B1FA81F271
:1006D00002E0B0FA80F220329046FFF725FF044690
:1006E0000F4640EA0A0041EA0B0153465A460843C6
:1006F00013D0114653EA010019D0C8F14002504608
:10070000FFF721FF05460E46504659464246FFF781
:100710000BFF084305D0012004E020463946BDE820
:10072000F08D0020054346EAE0762C4337430A98D3
:100730006305E40AA0EB08000022FD0A44EA4754DE
:100740000A3002D500200146E9E701051019694188
:10075000DDE9084500196941BDE8F04DA2E72DE942
:10076000F04D81EA030404F0004B21F000451446EB
:100770004FF0000A23F0004150EA050220D054EA6D
:1007800001021DD0C5F30A570246C5F31303C1F396
:100790001300C1F30A5640F4801543F48013A7EB0D
:1007A0000608101BD64608F2FD3873EB050002D38D
:1007B00008F1010801E092185B41B8F1000F03DA7B
:1007C00000200146BDE8F08D00204FF48011064660
:1007D00084460EE0171B73EB050705D3121B63EB72
:1007E000050306434CEA010C49084FEA3000921811
:1007F0005B4150EA0107EDD152EA030012D082EAD0
:10080000040083EA0501084305D0101BAB4106D262
:100810000122002306E000224FF0004302E06FF0C7
:10082000010253101AEB06004CEB085110EB0A00C2
:1008300041EB0B01BDE8F04DFFF734BF70B521F07F
:10084000004303430CD0C1F30A550024D5EB040543
:1008500064EB0403D617AD1AB34102DB0020014656
:1008600070BD201841EB025170BD2DE9F04D002301
:100870001A461B1A8A4103DB00200146BDE8F08DB1
:10088000C1F30A52C1F3130141F480154FF0000B7C
:10089000D10702D100186D41521E0027044640F2D4
:1008A000FF11384601EB620A3E46804602460020B0
:1008B0004FF48011FFF747FEC2197141BB1846EB98
:1008C0000100B4EB030C75EB000C04D3E41A65EBE8
:1008D000000517460E46241908F101006D418046B7
:1008E0003428E3DDF91946EB0600091BA84103D2C1
:1008F0004FF0FF32134601E0002213461BEB0700C6
:1009000046EB0A51BDE8F04DFFF7CCBE2DE9FE4F96
:10091000C3F30A5701F000450024C1F30A56C3F39C
:100920001303C1F3130143F4801312EB020AA6462A
:1009300041F48011009543EB030CA7F1010B16E085
:10094000B0EB0A0061EB0C01071E71F1000707DA3A
:100950004FF00008D0EB080085F0004568EB01017E
:10096000171A73EB0107EBD3761E001849415E4559
:10097000F6DA50EA010209D0CDE900E5002213467B
:100980000296FFF79EFE03B0BDE8F08F2046009967
:10099000F9E70EB5C10F80EAE0700844CA070021EC
:1009A00040F233438DE80E000A460B46FFF789FEFE
:1009B00003B000BD30B5041E71F1000404DB4FF03C
:1009C0000044404264EB0101141E73F1000405DB96
:1009D0001C464FF00043524263EB0403994208BFA8
:1009E000904230BD00207047064C074D06E0E0689D
:1009F00040F0010394E8070098471034AC42F6D366
:100A0000FFF7CCFB387000085870000800487047AA
:100A1000347000082DE9F05F824600780027154603
:100A20008B460AF10104B946302801D09DB113E08C
:100A300014F8010B0127782803D0582801D045B1BC
:100A40000AE00DB1102D07D10027102514F8010B75
:100A500002E0082500E00A250026B0460EE005FB6E
:100A6000080005FB06F1012701EB10461FFA80F88C
:100A7000B6F5803F00D3B94614F8010B294600F0C3
:100A800044F80028EBDABBF1000F05D00FB1641E6B
:100A900000E05446CBF80040B9F1000F06D003F057
:100AA00091FD02210160C81EBDE8F09F48EA0640A2
:100AB000FAE70EB540F2334102910021CDE9001171
:100AC0000A460B46FFF7FDFD03B000BD70B5C1F34C
:100AD0000A5201F000450024C1F3130140F2FF3334
:100AE00041F480119A4201DA002070BD40F2334394
:100AF0009A42A2F2334203DC5242FFF724FD00E0A7
:100B000090402C43F1D0404270BD3A2800D230389A
:100B100020F02002412A01D3A2F13700884201D3FC
:100B20004FF0FF30704710B50146806B026C12F039
:100B3000500F05D0026CD20626D500F06CFC10BD1B
:100B4000016C41F40071016401688A6812F0405F31
:100B500017D1027EAAB9CA6A12F4700F02D08A684D
:100B600052050ED44A6822F020024A60016C21F43A
:100B700080710164016CC90403D4016C41F001016E
:100B8000016400F0EFFB10BD806BC26CBDE810404B
:100B90000846104710B5806B40210164416C41F05C
:100BA0000401416400F037FC10BD10B5806B00F00B
:100BB00031FC10BD014800F02FBC00009401002062
:100BC000464910B54A6822F440324A604A68436890
:100BD0001A434A6001684A6822F480724A600168D8
:100BE0004A68036942EA03224A6001684A6822F0BF
:100BF00040724A6001684A6883681A434A60016823
:100C00008A6822F400628A6001688A68C3681A43AD
:100C10008A60816A6FF07062D14201688A6822F04E
:100C200070628A6001688A680CD0836A1A438A609D
:100C300001688A6822F040528A6001688A68C36A43
:100C40001A4301E022F040528A6001688A6822F06B
:100C500002028A6001688A68037E42EA43028A606F
:100C600090F82010002901684A680FD042F4006211
:100C70004A6001684A6822F460424A6001684A6832
:100C8000174C436A04EB43331A4301E022F4006239
:100C90004A600168CA6A22F47002CA620168CA6ABC
:100CA000838B104C04EB03531A43CA6201688A68B1
:100CB00022F400728A6001688A6890F8303042EA53
:100CC00043228A6001688A6822F480628A6001682F
:100CD0008A68406942EA8020886010BD0023014094
:100CE00000E0FFFF0000F0FFFEE7000070B5C44C1D
:100CF0002DED108B94ED008A9FEDC20A28EE000ABC
:100D000010EE100AFFF7CBFB41EC190B18EE100A9E
:100D1000FFF7C5FB41EC100B9FEDBBABB0EE4A1AE1
:100D2000F0EE6A1A03F064FE9FEDB91B51EC100B54
:100D300053EC112BFFF741FB41EC1F0B2068FFF731
:100D4000AEFB41EC100B9FEDB4BBB0EE4B1AF0EED6
:100D50006B1A03F04DFE9FEDB21B51EC100B53ECE0
:100D6000112BFFF72AFB41EC1E0B2068FFF797FBC6
:100D700041EC100B9FEDACCBB0EE4C1AF0EE6C1AC0
:100D800003F036FE9FEDAA1B51EC100B53EC112B18
:100D9000FFF713FB41EC1D0B2068FFF780FB41ECD4
:100DA000100B9FEDA51B03F023FE9FEDA51B51EC3F
:100DB000100B53EC112BFFF700FB41EC180B2068D4
:100DC000FFF76DFB41EC100B9FED9F1B03F010FE36
:100DD0009FED9F1B51EC100B53EC112BFFF7EDFA1D
:100DE00053EC182BFFF7E3FA53EC1D2BFFF73EFAF9
:100DF00053EC1E2BFFF7DBFA53EC1F2BFFF736FAF1
:100E000053EC192BFFF7D3FA9FED931B53EC112BE7
:100E1000FFF72CFA9FED92DB53EC1D2BFFF7CDFA79
:100E2000FFF750FB00EE100A04F03CFFDFED8E8A66
:100E30008E4DC0EE280AA868C0ED000A94ED018A24
:100E40009FED8B0A28EE000A10EE100AFFF727FB31
:100E500041EC190B18EE100AFFF721FB41EC100BC7
:100E6000B0EE4A1AF0EE6A1A03F0C2FD9FED811B44
:100E700051EC100B53EC112BFFF79FFA41EC1A0BBE
:100E80006068FFF70CFB41EC100BB0EE4B1AF0EE74
:100E90006B1A03F0ADFD9FED791B51EC100B53EC79
:100EA000112BFFF78AFA41EC1B0B6068FFF7F7FA8A
:100EB00041EC100BB0EE4C1AF0EE6C1A03F098FDFA
:100EC0009FED701B51EC100B53EC112BFFF775FAD3
:100ED00041EC1E0B6068FFF7E2FA41EC100B9FED4E
:100EE000561B03F085FD9FED691B51EC100B53EC75
:100EF000112BFFF762FA41EC1C0B6068FFF7CFFA89
:100F000041EC100B9FED501B03F072FD9FED611B38
:100F100051EC100B53EC112BFFF74FFA53EC1C2B39
:100F2000FFF745FA53EC1E2BFFF7A0F953EC1B2BF0
:100F3000FFF73DFA53EC1A2BFFF798F953EC192BF6
:100F4000FFF735FA9FED551B53EC112BFFF78EF988
:100F500053EC1D2BFFF731FAFFF7B4FA00EE100A3D
:100F600004F0A0FEC0EE280AE868C0ED000A94ED87
:100F7000020AF1EE080A04F063FBDFED4A0A20EEF4
:100F8000208A94ED020AF1EE040A04F059FBDFED29
:100F9000460A00EE608A94ED020AF1EE000A04F0BF
:100FA0004FFBDFED420A00EE208A94ED020AF0EEDC
:100FB000080A04F045FBDFED3E0A00EE608A94ED7E
:100FC000020AF0EE000A04F03BFBDFED3A0A00EE05
:100FD000208A94ED020ADFED380A00EE608A9FED68
:100FE000370A38EE000A20EE280A04F05BFEC0EE55
:100FF000280A6868C0ED000ABDEC108B70BD0000C7
:10100000880100201FB5634400000000000000407C
:101010000000006066589240000000000000084098
:10102000000000C0F5CA8A40000000000000104027
:1010300000000000294C7640000000000000144031
:10104000000000E07AB453400000000000001840A7
:10105000EC51B81E85AB1C40000000E051607640AA
:1010600000000000000059400000C8422800002095
:1010700000207A44000000C0CC10954000000060C1
:10108000667C9040000000205CDB7D40000000C0DA
:10109000F5D85C4000000060E3E5264000000080D9
:1010A000EB057840F0A76C41295C13435CFF1744C3
:1010B00033E3A8446606DC446616AB44719D1644CF
:1010C0000EB515481549826A0262C36A436209680F
:1010D00091ED020AFDEEC00AC0ED0A0A91ED030A85
:1010E000BDEEC00A80ED0B0A91ED041A0CA1BDEE15
:1010F000C11A80ED0C1ACDED000A8DED010A8DEDBF
:10110000021A0C4803F00EFA03B082B209490A48E9
:101110005DF804EB01F0CEBF580000200C00002069
:101120000A5825695925695825695925694125694C
:1011300000000000A40400201C030020014800F06F
:101140001BBB00005C030020014800F015BB000041
:10115000BC030020014800F00FBB00001C0400206D
:1011600001681823CAB2103AB2FBF3F2054B6FF3D1
:101170000901032A9B5CC36500D9091D81650846E6
:10118000704700009A6C000810B5014600208B697A
:101190008A6A4FF0C07453B1B3F5005F15D072B1D5
:1011A000012A0CD0022A0AD0032A09D104E01AB17C
:1011B000012A06D0022A03D1C96AC90100D501203B
:1011C00010BDC96AA142FAD010BD002AF7D0012A89
:1011D000F2D0022AF3D0032AF3D010BD30B5046850
:1011E000256825F480252560046863608368402BAA
:1011F000036803D099600068C26030BD9A600068DF
:10120000C16030BD7047012000F038BC022000F002
:1012100035BC72B6FEE7704778B50024009490F8AC
:101220003C20012A19D0012280F83C200A680723BB
:101230000568092A13D9EE680A3A02EB4202934084
:101240009E43EE600B788A680A3B03EB43039A40A7
:101250000368DD682A43DA6010E0022078BD2E6959
:1012600002EB420293409E432E610B788A6803EBA7
:1012700043039A4003681D692A431A614A681F2381
:10128000072A13D205686E6B521E02EB820293404E
:101290009E436E630B790A885B1E92B203EB830355
:1012A0009A4003685D6B2A435A6327E005680D2A5C
:1012B00012D22E6BD21F02EB820293409E432E630A
:1012C0000B790A88DB1F92B203EB83039A40036811
:1012D0001D6B2A431A6311E0EE6A0D3A02EB82029B
:1012E00093409E43EE620B790A880D3B92B203EB6A
:1012F00083039A400368DD6A2A43DA62164B056865
:10130000144A9D4206D10D68122D03D1556845F44B
:101310008005556005689D4218D10B68102B01D0DF
:10132000112B13D1536843F400035360096810294B
:101330000CD10A490A4A0968B1FBF2F101EB8101BB
:10134000490000E0491E00910029FBD180F83C4093
:10135000002078BD0023014000200140AC000020A7
:1013600040420F002DE9F047264900202DED028B69
:1013700001F10C0551F8203055F820201A4445F8A9
:101380002020401C0328F5DB1F480188491C8EB231
:101390000680B6F57A7F30D9DFF86880002408F13E
:1013A0001808DFED1A8A9FED1A8A8246274608F14F
:1013B0000C0900BF55F82400B0FBF6F000EE100A4F
:1013C00048F82400B8EE400A20EE280A20EE080A69
:1013D00004F068FCC0EE080A09EB8400C0ED000AC6
:1013E00045F82470641C032CE4DBAAF80070BDEC03
:1013F000028BBDE8F047FFF779BCBDEC028BBDE87E
:10140000F087000064010020280000203333533AA5
:101410000000C8427047704770B504460068016814
:101420004268C1F34001C2F3401251B34AB3216C88
:10143000C90603D4216C41F400712164816811F064
:10144000405F17D1217EA9B9C16A11F4700F02D093
:10145000816849050ED4416821F020014160206C6B
:1014600020F480702064206CC00403D4206C40F011
:10147000010020642046FFF775FF21686FF012001D
:101480000860206801684268C1F38001C2F3C0129D
:1014900089B382B3216CC90603D4216C41F4005195
:1014A0002164816811F4401F1ED1816B11F4401F2B
:1014B00002D08168490517D44168490514D4816870
:1014C00011F0405F10D1217E71B9416821F0800197
:1014D0004160206C20F480502064206CC00503D44F
:1014E000206C40F0010020642046FFF794FE216844
:1014F0006FF00C00086020680168426811F0010F6D
:10150000C2F380120ED06AB10068C0070AD0206C06
:1015100040F480302064204600F046F821686FF0E7
:1015200001000860206801684268C1F34011C2F3FD
:10153000806200290DD0002A0BD0616C41F00201BD
:1015400061646FF0200505602046FFF764FF2068A6
:10155000056070BD70B504004FF0000503D0206C2D
:10156000002610B107E0012070BD204600F01EF8F3
:10157000666484F83C60206CC00610D4206C20F4B3
:10158000885040F0020020642046FFF719FB666493
:10159000206C20F0020040F00100206400E00125F2
:1015A00084F83C60284670BD7047000070B586B076
:1015B000064614216846FEF741FE214930688842FC
:1015C0003CD120480025016841F480710160006829
:1015D00000F4807005901B481438016841F0010147
:1015E00001600068694600F0010005903820009015
:1015F0000320CDE90105144800F04CFA144C1348BF
:10160000C4E900050015A560C4E9035080006061CD
:101610008000A0618011C4E907052046656200F0E2
:101620007BF908B1FFF7F5FDB463002211461220E3
:10163000A66300F071FB122000F060FB06B070BDE5
:101640000020014044380240000002401064024083
:101650005C030020F8B50E4600210446009190F886
:101660003C00012807D0012084F83C0020688368F2
:10167000DB0702D011E00220F8BD836843F00103CC
:1016800083602D482D4B0068B0FBF3F000EB400069
:1016900000E0401E00900028FBD120688368DB0733
:1016A00048D0236C40F20165AB4343F4807323645C
:1016B0004068400505D5206C20F4005040F480506F
:1016C0002064206CC00404D5606C20F006006064C7
:1016D00000E0616484F83C10A16B1A48184DC8639F
:1016E000A16B19480864A16B1848C86421686FF0A1
:1016F000220008602068416841F0806141602068F4
:10170000816841F4807181602168134632464C3112
:10171000A06B00F06BF96868C006206802D00C4925
:10172000884207D1816811F0405F03D1816841F0A0
:10173000804181600020F8BDAC00002040420F00D5
:1017400000230140270B0008AB0B0008950B000895
:101750000020014090F83510022903D08021416516
:1017600001207047052180F835100068016821F0DC
:1017700001010160002070472DE9F84304464FF055
:101780000009CDF8009063484FF41651A56D00682C
:10179000B0FBF1F72E6894F85C10082000FA01F114
:1017A00031420FD021680A6852070BD50A6822F02F
:1017B00004020A6094F85C108840A860606D40F0F4
:1017C0000100606594F85C104FF0010808FA01F020
:1017D000304208D021684969090604D5A860606DC7
:1017E00040F00200606594F85C10042088403042AC
:1017F00008D021680968890704D5A860606D40F0A9
:101800000400606594F85C1010208840304218D0C5
:1018100021680968090714D5A86020680168490390
:1018200004D50068000308D5A16C07E00168C9056C
:1018300003D4016821F008010160216C09B1204640
:10184000884794F85C1020208840304231D02168CD
:101850000968C9062DD5A86094F8350005282068C8
:10186000016806D0490347D5006800031DD4616CA8
:101870001CE021F0160101602068416921F080011F
:101880004161206C08B9A06C20B12068016821F08A
:101890000801016094F85C103F208840A86084F83B
:1018A000349084F83580216D1FE0E16B09B120464A
:1018B0008847606D00282BD0606DC00714D00520CC
:1018C00084F835002068016821F00101016000986A
:1018D000401C0090B84203D820680068C007F6D1C9
:1018E00084F8349084F83580E16C002910D001B080
:1018F0002046BDE8F04308470168C905D5D4016812
:1019000021F01001016084F8349084F83580CCE730
:10191000BDE8F883AC0000202DE9F041044600F05A
:101920008DF906465CB1002584F83450022084F815
:1019300035002068016821F0010101600DE00120FF
:10194000BDE8F08100F07AF9801B052805D9202038
:101950006065032084F83500F2E720680068C0075E
:10196000F0D12268116820480140D4E901031843EE
:10197000D4E903363343184363691843A369184312
:10198000E3691843236A18430843616A042903D1B1
:10199000D4E90B1319430843106020684069666A54
:1019A00020F0070130460E43012704280CD1A06A1D
:1019B0000643E06A40B12046FFF7E6FB20B1402035
:1019C000606584F83570BAE7206846612046FFF705
:1019D000C7FB94F85C203F2191408160656584F8E5
:1019E00035700020ACE700003F8010F02DE9F04199
:1019F0000446866D90F83400002501280DD00120A2
:101A000084F8340094F835700020012F07D084F852
:101A1000340002252846BDE8F0810220FBE70227BA
:101A200084F8357060652046FFF7D8FB94F85C10A9
:101A30003F208840B0602068016841F016010160D5
:101A4000206C20B12068016841F008010160206825
:101A5000016841F001010160DCE7000010B50649B2
:101A6000002301240A78012801D0022803D1002A8A
:101A700001D04C700B7010BD50000020044910B50F
:101A80000A68024202D00860FFF7E8FF10BD0000BC
:101A9000143C01402DE9F84F00224FF001080325C6
:101AA0004FF00F0E0B6808FA02F42340A34271D1E5
:101AB0004E68012E05D0022E03D0112E01D0122E19
:101AC00015D18668570005FA07FC26EA0C06D1F8FE
:101AD0000CC00CFA07FC4CEA060CC0F808C04668BB
:101AE000A6430C79C4F30014944034434460C668A0
:101AF000570005FA07FC8C6826EA0C06BC40344304
:101B0000C4604C68022C01D0122C13D1D40800EB15
:101B10008404A346D4F8209054074FEAD46A0EFAFE
:101B20000AF629EA06090E6906FA0AF646EA0906DD
:101B3000CBF8206004680E7924EA0C0406F0030652
:101B4000BE40264306604C68E40056D52E4C2668FD
:101B500046F480462660246822F0030604F480449C
:101B600000942A4C3444A446D4F808489607370F0A
:101B70000EFA07F6B443264EB04201D1002615E016
:101B8000244EB04201D1012610E0234EB04202D1D2
:101B900002260BE031E0214EB04201D1032605E0E0
:101BA0001F4EB04201D1042600E00726BE40264366
:101BB000CCF808681B4E34684F689C43FF0300D57F
:101BC0001C433460174E361D34684F689C43BF0376
:101BD00000D51C433460134E083634684F689C436C
:101BE000FF0200D51C4334600E4E0C3634684F683B
:101BF0009C43BF0200D51C433460521C102AFFF4E2
:101C000051AFBDE8F88F0000443802400030014079
:101C1000000002400004024000080240000C0240A4
:101C200000100240003C01400069084000D0012043
:101C300070470AB1816170470904FBE70148806879
:101C400070470000A000002002488168027811441B
:101C500081607047A00000200B4810B5016841F476
:101C600000710160016841F480610160016841F424
:101C700080710160032000F06FF8002000F006F88A
:101C800000F024F8002010BD003C024070B50D4D5E
:101C900004464FF47A712878B1FBF0F00A490968DC
:101CA000B1FBF0F000F004FB48B9102C07D2002281
:101CB0002146501E00F030F800206C6070BD0120FD
:101CC00070BD0000A0000020AC0000200A4808B54C
:101CD000016841F480410160006800F48040009098
:101CE0000548001F016841F080510160006800F064
:101CF0008050009008BD000044380240002809DBF5
:101D000000F01F02012191404009800000F1E02015
:101D1000C0F8001170470000F0B40E4B1B680C4671
:101D2000C3F30223C3F10705042D00D90425191DAF
:101D3000072901D2002300E0DB1E012606FA05F187
:101D4000491E214099409E40761E16403143F0BC0A
:101D500002F027BC0CED00E0064900F0070208681D
:101D60004FF6FF03184040EA0220034A1043086080
:101D7000704700000CED00E00000FA052DE9F04787
:101D80000E46050065D0DFF81481D8F80000F7B2E0
:101D900000F00F00B04207D288F80070D8F80000B9
:101DA00000F00F00B04254D128683D4C810712D595
:101DB000400703D5206840F4E050206028780007F1
:101DC00003D5206840F4604020602068A96820F0B6
:101DD000F000084320602878C0072DD0304968689B
:101DE0000839012812D0022813D0032811D009681D
:101DF000890700292DDA216821F0030101432160C0
:101E0000FFF71CFF814641F2883A0EE0096889031A
:101E1000EFE709688901ECE7FFF710FFA0EB090184
:101E2000514502D90320BDE8F0872068696800F0B9
:101E30000C00B0EB810FEFD1D8F80010404601F054
:101E40000F01B14207D90770006800F00F00B042DF
:101E500001D00120E7E72878400705D52068E96828
:101E600020F4E050084320602878000706D5206859
:101E7000296920F4604040EAC100206000F038F891
:101E80002168084AC1F30311515CC8400649086043
:101E900006480068FFF7FAFE0020C4E7003C024055
:101EA00008380240A26C0008AC000020A40000200A
:101EB0000448054900680968044AC1F38221515C5D
:101EC000C8407047AC00002008380240B26C0008DF
:101ED0000448054900680968044AC1F34231515C6D
:101EE000C8407047AC00002008380240B26C0008BF
:101EF000154810B5006810F00C02144813D01449AE
:101F0000042A0FD0082A0ED10F4C241F2268236800
:101F100002F03F025B0207D52068C0F38810A0FBE7
:101F2000010106E0084610BD2168C1F38811A1FB3C
:101F300000010023FEF74AF92168C1F30141491C61
:101F40004900B0FBF1F010BD083802400024F40055
:101F500040787D012DE9F84F04006ED02078DFF83D
:101F60003C93C007A9F104054AD009F104000168B7
:101F7000C1F38101012908D00068C0F38100022863
:101F80000AD1D9F80000400206D52868800337D569
:101F900060680028E1D033E06068B0F5803F10D081
:101FA000B0F5A02F286810D020F480302860286871
:101FB00020F4802028606068A8B1FFF73FFE064645
:101FC0000DE0286840F48030F4E740F48020286079
:101FD000F7E700BFFFF732FE801B642873D828683C
:101FE0008003F7D50CE0FFF729FE064605E000BFA9
:101FF000FFF724FE801B6428F0D828688003F7D4FC
:102000002078DFF89C8280074FF0000A3ED5A34875
:10201000001D016811F00C0F08D00068C0F38100AA
:1020200002280BD1D9F80000400207D428688007A5
:1020300016D5E068012800D112E02BE1E068B8B1C4
:102040000120C8F80000FFF7F9FD064605E000BFD3
:10205000FFF7F4FD801B0228C0D828688007F7D559
:102060002868216920F0F80040EAC10028600DE0EE
:10207000C8F800A0FFF7E2FD064604E0FFF7DEFD2A
:10208000801B02281FD828688007F7D42078000713
:1020900022D5824E83486169703671B10121016099
:1020A000FFF7CCFD074604E0FFF7C8FDC01B022880
:1020B00009D830688007F7D50EE0C0F800A0FFF718
:1020C000BDFD074605E082E0FFF7B8FDC01B022812
:1020D0007DD830688007F7D42078400768D5DFF8CE
:1020E000BCB100270BF13C0BDBF80000C0000BD4A7
:1020F000DBF8001041F08051CBF80010DBF8000055
:10210000012700F080500090674E3068C00510D461
:10211000306840F480703060FFF790FD009005E07B
:10212000FFF78CFD0099401A022850D83068C0058E
:10213000F6D55A4EA0686C3601280FD005283068B5
:1021400010D020F001003060306820F004003060D2
:10215000A068B8B1FFF772FD00900FE0306840F062
:102160000100F4E740F004003060F7E7FFF766FD98
:102170000099411A41F28830814266D83068800760
:10218000F4D50EE0FFF75AFD009007E0FFF756FD8B
:102190000099411A41F28830814256D83068800750
:1021A000F4D42FB1DBF8001021F08051CBF80010EF
:1021B000A069C8B33949091D0968C1F38101022921
:1021C0004AD00228504607D0C8F8600000E03CE042
:1021D000FFF734FD04463BE04746C8F86000FFF7D0
:1021E0002DFD064605E000BFFFF728FD801B0228F5
:1021F0002BD828688001F7D4D4E907010843A16AE5
:102200002A4A490802EB0141626A41EA8211084305
:1022100094F82C1040EA0161C9F8001001203866DA
:10222000FFF70CFD044606E036E000BFFFF706FDB1
:10223000001B022809D828688001F7D52CE000BFD0
:10224000FFF7FCFC001B022802D90320BDE8F88F31
:1022500028688001F4D41FE00128F7D0D9F80000E5
:10226000E26900F48001914214D1226A00F03F013A
:1022700091420FD147F6C071626A0140914209D183
:10228000A26A00F44031914204D1E16A00F070602A
:10229000884201D00120D9E70020D7E70438024066
:1022A00000004742800E4742007000400000FFFFE0
:1022B00010B5401EB0F1807F01D3012010BD4FF05A
:1022C000E02460610F21601702F06BF90020A0612B
:1022D00007202061002010BD7047704710B590F8AE
:1022E0003C20012A22D0012280F83C20CA688C6858
:1022F00022F4407222434C6822F4806222430C682C
:1023000022F4006222430C6922F4805222434C6979
:1023100022F400522243C969002322F480420A4376
:1023200001684A6480F83C30002010BD022010BDD6
:1023300070B590F83C20012A2CD0012480F83C4054
:10234000022280F83D2003685A689D6822F07006DA
:102350000A6832435A60104B02689A420ED0B2F1BA
:10236000804F0BD00D4B9A4208D00D4B9A4205D0AE
:102370000C4B9A4202D00C4B9A4204D1496825F08A
:1023800080031943916080F83D40002180F83C10A3
:10239000084670BD022070BD0000014000040040EE
:1023A00000080040000C00400040014010B504004F
:1023B00003D094F83D0010B107E0012010BD0020CB
:1023C00084F83C00204600F00DF8022084F83D001F
:1023D000211D206801F0CEFD012084F83D00002081
:1023E00010BD000008B501681348814201D11348AF
:1023F00019E01248001FB1F1804F14D0104A9142E9
:1024000019D1016841F0080101600068002200F064
:102410000800009011463220FFF77EFCBDE808401E
:102420003220FFF76BBC016841F0010101600068D8
:1024300000F00100009008BD000001404438024057
:10244000000C00400168CA6842F00102CA600068DE
:10245000816801F00701062903D0016841F00101FC
:1024600001600020704770B5044690F83C000128D8
:1024700017D0012584F83C50022084F83D002068E4
:10248000826822F0770222F47F4282600868502836
:1024900030D00DDC20284DD005DC98B310283BD17E
:1024A00048E0022070BD302844D0402834D139E0C3
:1024B000602828D0702806D0B0F5805F2CD0B0F509
:1024C000005F29D10AE0CB68D1E90121206801F041
:1024D000AAFD2068816841F0770109E0CB68D1E965
:1024E0000121206801F09FFD2068816841F480414E
:1024F000816011E0CA684968206801F049FE5021F6
:10250000206807E016E0CA684968206801F051FEBB
:102510006021206801F091FD84F83D50002084F88E
:102520003C0070BDCA684968206801F031FE402156
:102530002068EFE7226801461046EBE72DE9F041FD
:102540000D46040003D094F83D0018B108E00120C6
:10255000BDE8F081002084F83C00204600F03AF805
:10256000022084F83D002068816844F2070291430C
:102570008160211D206801F0FDFC2268906891694E
:10258000166A2B68AF69034340F20330814341EA86
:102590000721A868EF6908434FF6FC418843E968C2
:1025A00040EA0720014328692F6A000140EA07300A
:1025B000084369686D6926F0AA0646EA05152943AD
:1025C00093602268906120680162012084F83D00D8
:1025D0000020BDE770B586B0044614216846FDF7BB
:1025E0002DFE21481F4E256800221F491038C024A7
:1025F0000223B54217D10D6845F002050D60096848
:1026000001F002010591016841F0010101600068DB
:102610000094CDE9013200F00100CDE904306946B3
:102620000392124819E0124EB54218D10D6845F0D8
:1026300004050D60096801F004010591016841F08D
:102640000201016000680094CDE9013200F002004F
:10265000CDE90430694603920648FFF71BFA06B03D
:1026600070BD0000000400404038024000000240FD
:10267000000800400004024010B50446006891B113
:10268000042904D00122002101F0C0FC20680122AD
:102690005FF0040101F0BAFC2068016841F001011B
:1026A0000160002010BD01220021F3E7704770B5E2
:1026B0000446006801694FF00005C943890715D435
:1026C000C168C943890711D4E91E0161012020773F
:1026D000206880698007204602D0FFF7E7FF04E00A
:1026E00000F0D8F8204600F05AF9257720680169F3
:1026F000C943490717D4C168C943490713D46FF0C8
:1027000004010161022020772068806910F4407F75
:10271000204602D0FFF7CAFF04E000F0BBF82046D5
:1027200000F03DF9257720680169C943090716D4EF
:10273000C168C943090712D46FF008010161042080
:1027400020772068C0698007204602D0FFF7AEFFDF
:1027500004E000F09FF8204600F021F9257720687A
:102760000169C943C90617D4C168C943C90613D44E
:102770006FF010010161082020772068C06910F413
:10278000407F204602D0FFF791FF04E000F082F87E
:10279000204600F004F9257720680169C943C9077C
:1027A00008D1C168C943C90704D1891E0161204607
:1027B00000F012F920680169C943090609D4C1680B
:1027C000C943090605D46FF0800101612046FFF777
:1027D00083FD20680169C943490609D4C168C9431A
:1027E000490605D46FF040010161204600F00EF962
:1027F00020680169C94389060BD4C168C9438906A9
:1028000007D46FF0200101612046BDE87040FFF75A
:1028100064BD70BD30B587B0044614216846FDF72D
:102820000DFD2468174D0021174802220123AC42F8
:1028300010D1046844F001040460006800F0010055
:102840000590D0010090CDE90121CDE9031369463F
:102850000E4812E0B4F1804F11D1046844F0020434
:102860000460006800F00200059008200090CDE9A7
:102870000121CDE9031369460548FFF70BF907B0BD
:1028800030BD00000000014030380240000002402E
:1028900000040240704770B5044690F83C000D46B5
:1028A00001280DD0012684F83C60022084F83D0008
:1028B00042B1042A18D0082A2AD00C2A4DD139E076
:1028C000022070BD206801F0C1FB2068816941F0E1
:1028D000080181612068816921F00401816120681B
:1028E00081692A69114311E0206801F0D7FB206853
:1028F000816941F4006181612068816921F480610E
:102900008161206881692A6941EA0221816124E0AC
:10291000206801F0EFFB2068C16941F00801C16146
:102920002068C16921F00401C1612068C1692A6978
:10293000114311E0206801F009FC2068C16941F4ED
:102940000061C1612068C16921F48061C1612068B2
:10295000C1692A6941EA0221C16184F83D60002011
:1029600084F83C0070BD10B5040003D094F83D001D
:1029700010B107E0012010BD002084F83C00204683
:1029800000F00CF8022084F83D00211D206801F0C1
:10299000F1FA012084F83D00002010BD7047704717
:1029A00010B504460068012201F030FB0949206897
:1029B000884203D1416C41F4004141642068816840
:1029C00001F00701062903D0016841F0010101600F
:1029D000002010BD0000014070B50B4C2079401C58
:1029E00020716079401C6071207900250A2802D38B
:1029F00000F098FD25716079C82804D3E07808B10B
:102A0000FEF75EFB657170BD500000207047704797
:102A100070B5026804461068D168536910F00F0F52
:102A200052D003F0010501F490762E435FD0C20727
:102A300005D0CA0503D5E26B42F00102E26342070A
:102A400005D5DA0703D0E26B42F00202E2638207A7
:102A500005D5DA0703D0E26B42F00402E263020715
:102A600007D501F020022A4303D0E26B42F00802AE
:102A7000E263E26B002A33D0800604D5880602D5D3
:102A8000204601F02BFC20684069E16BC0F3801008
:102A9000090700D428B3204601F009FC20684169E9
:102AA00049061AD5416921F040014161606BA0B12E
:102AB0001B490165606BFEF74DFE002810D0606B6E
:102AC000016DBDE870400847830610D58B060ED512
:102AD0002046BDE8704001F001BC2046FFF797FF9B
:102AE00070BD2046FFF793FF0020E06370BD030632
:102AF00006D50B0604D52046BDE8704001F0CEBCDB
:102B00004006F3D54806F1D5D168204621F04001B2
:102B1000D160202184F8391000F00CFB70BD00005A
:102B2000D741000870B5040004D094F8390000259E
:102B300010B106E0012070BD84F83850204600F046
:102B400023F8242084F839002068C16821F400515A
:102B5000C160204601F00EFC2068016921F490411B
:102B600001612068416921F02A0141612068C16842
:102B700041F40051C160E563202084F8390084F8F5
:102B80003A00002070BD00002DE9F04186B00646F5
:102B900014216846FDF752FB2E493068884256D111
:102BA0002D480024016841F020010160006800F018
:102BB0002000059028481438016841F001010160A7
:102BC0000068694600F0010005904FF4C050009085
:102BD0000220CDE9010403200390082004901F483F
:102BE000FEF758FF1F4D1E484FF480688705286088
:102BF000C5E90174C5E903486C61AC61EC612C6204
:102C000028466C62FEF788FE08B1FEF702FB75638A
:102C1000AE631348144D7830E5E802074020A5E87C
:102C20001101114845F81449AC61EC612C626C62E9
:102C3000FEF772FE08B1FEF7ECFA3563002211468A
:102C40004720AE63FFF768F84720FFF757F806B054
:102C5000BDE8F08100140140443802400000024009
:102C600028640240BC0300201C040020F8B5044680
:102C700090F83A0020283CD1C1B3BAB394F8380098
:102C8000012836D0012084F83800A162A2850025F1
:102C9000E563222084F83A00636B1748D863636BBE
:102CA00016481864636B1648D864606B1346056554
:102CB0000846666B216802463046091DFEF796FEFF
:102CC000206801684168009184F83850C16841F477
:102CD0008071C1602068416941F001014161206853
:102CE000416941F0400141610020F8BDFFE701204A
:102CF000FBE70220F9E70000314200086D420008BE
:102D0000E74100082DE9F0412DED028B0622C8496C
:102D1000C848FFF7ABFFC649C74F07220878C74C22
:102D2000B2EE040AFAEE040A522816D0542835D01E
:102D300001254FF000084C284DD0C14EA1F14004B0
:102D400050287ED09FEDBF8A4E286CD041286BD092
:102D5000522805D04C2841D007E14878532802D0AA
:102D60004878B9493CE088785428F5D1207840B9B2
:102D7000B6A1B84801F0D6FB82B2B649AD4800F022
:102D800099F9BFF34F8FB4480168B44A01F4E06188
:102D900011430160BFF34F8F00BFFDE7487845281E
:102DA000DAD188785328D7D1C8785428D4D120785C
:102DB00040B9ABA1A74801F0B5FB82B2A5499D4837
:102DC00000F078F9BDEC028B2D22BDE8F041062120
:102DD0009748FDF72CBA48784F2806D04878A24982
:102DE000462871D0422870D0BFE08878472807D1A4
:102DF000C8784F2804D108794E2802D0462814D02C
:102E0000B3E0207840B999A1924801F08BFB82B2DF
:102E10009049884800F04EF92D2206218448FDF79C
:102E200006FA3CE00DE051E096E04879462852D1A0
:102E30002D2206217E48FDF7FAF984F800808FA143
:102E400094E048784F2846D18878492843D1C878FB
:102E50004E2840D1087954283DD1487931283AD1BB
:102E60002D2206217248FDF7E2F92078401CC1B2FC
:102E70002170306880F82C803D709FED840A012914
:102E800012D0DFED830A022911D0032912D00429C0
:102E900015D0052904D180ED060A80ED070A2570BA
:102EA000BDEC028BBDE8F08180ED060A09E080ED03
:102EB000060A01E0C0ED060AC0ED070AF0E7C0ED22
:102EC000060A80ED070AEBE7ABE0ADE0487858284A
:102ED00002D0592814D048E055488A783838027012
:102EE000CA7842700A7982704979C170FDF7B1F9E8
:102EF00000EE100A6060B8EEC00A84ED0D0ACFE75C
:102F00004B488A7830380270CA7842700A798270E9
:102F10004979C170FDF79DF900EE100AE060B8EE46
:102F2000C00A84ED0E0AD4ED0D0AF5EEC00AF1EEEA
:102F300010FA0CDBB5EEC00AF1EE10FA07DB3068D0
:102F4000C0ED060A80ED070A80F82C803D7084ED04
:102F50000D8A84ED0E8AA3E748784E2802D04728D0
:102F60003CD002E0887847280CD04AA1394801F0CB
:102F7000D9FABDEC028B82B2BDE8F04135492D484B
:102F800000F098B8CA785A2A05D10879452802D1A4
:102F9000487952281AD026483F3802700A79427080
:102FA00049798170FDF755F900EE100A60613E49DC
:102FB000B8EEC00A10EE100A84ED0F0A88429EDCBB
:102FC000B5EEC00AF1EE10FA25DC69E7306880ED55
:102FD000088A00BF80F82C503D7061E714488A7859
:102FE00024380270CA7842700A7982704979C170B7
:102FF000FDF72FF900EE100AA061B8EEC00A84EDCB
:103000000F0AB5EEC00AF1EE10FAA4D210EE100AC3
:10301000264988429FD8306880ED080ADAE73A707E
:103020003EE781ED000AFAE7C1ED000AF7E700008C
:10303000980000201C030020000000205300002006
:103040000C000020000000001000002052455345F5
:10305000540D0A007C0400200CED00E00400FA0589
:1030600054455354210D0A00140000204C4F47478B
:103070004552204F4E210D0A000000004C4F47479B
:103080004552204F4646210D0A000000000096439D
:103090000080A2444E49455A4E414E41204B4F4D6F
:1030A000454E44410D0A000000003443000034C383
:1030B0007047000070B5044690F83900202830D1E0
:1030C00069B362B394F8380001282AD0012084F84B
:1030D00038002162A284E2840025E563212084F87F
:1030E0003900236B1048D863236B10481864236B96
:1030F0000F48D864206B134605652668206B321D87
:10310000FEF774FC21686FF04000086084F83850C6
:103110002068416941F080014161002070BD0120BB
:1031200070BD022070BD000077420008A542000873
:10313000E741000870477047FEE70000134A116836
:1031400013484068436BC91A0163B1F5004F03DDB2
:10315000A1F57F41FF39016311F5004F04DA4942BF
:103160004FF6FF73591A01631168416390ED0C0A21
:103170009FED081AF8EEC00A80EE810ADFED060A1C
:1031800020EE200A80ED010A704700002404004070
:1031900000000020000070450080BB452748284AF9
:1031A000406890ED021A80ED031A90EC020A70EE6E
:1031B000600AC0ED020A90ED040A30EE200A10EE1B
:1031C000101A80ED040A914202DD9FED1E0A06E00E
:1031D00010EE101A1C4A914203D99FED1C0A80ED93
:1031E000040A30EEC10A90ED081A90ED042A194A3B
:1031F00060EE011A9FED160A81EE801AD0ED061AD4
:1032000061EEA00AD0ED071A61EE821A41EE800A43
:1032100031EE200A10EE101A80ED050A914202DD0F
:103220009FED0D0A06E010EE101A0C4A914203D9E8
:103230009FED0B0A80ED050A00F014B80000002095
:1032400000401C4600401C4600401CC600401CC6F6
:103250000AD7233C0000C8420000C8420000C8C290
:103260000000C8C2DFED200AB5EEC00A1F4960EEBB
:10327000200A1F48F0EEE00AFCEEE00AF1EE10FA38
:103280000BDD0B6810EE902A5A63026842F400527C
:103290000260026822F480520260B5EEC00AF1EECC
:1032A00010FA0BD20B6810EE902A5A63026822F4CF
:1032B00000520260026842F48052026010EE102A4E
:1032C0000C4B9A420FD210EE102A0B4B9A420ADA9C
:1032D000096800224A63016821F400510160016815
:1032E00021F48051016070470AD71F41DC010020A2
:1032F00014040240CDCCCCBDCDCCCC3D134A1168DA
:1033000013488068436BC91A0163B1F5004F03DDB0
:10331000A1F57F41FF39016311F5004F04DA4942FD
:103320004FF6FF73591A01631168416390ED0C0A5F
:103330009FED081AF8EEC00A80EE810ADFED060A5A
:1033400020EE200A80ED010A7047000024080040AA
:1033500000000020000070450080BB452748284A37
:10336000806890ED021A80ED031A90EC020A70EE6C
:10337000600AC0ED020A90ED040A30EE200A10EE59
:10338000101A80ED040A914202DD9FED1E0A06E04C
:1033900010EE101A1C4A914203D99FED1C0A80EDD1
:1033A000040A30EEC10A90ED081A90ED042A194A79
:1033B00060EE011A9FED160A81EE801AD0ED061A12
:1033C00061EEA00AD0ED071A61EE821A41EE800A82
:1033D00031EE200A10EE101A80ED050A914202DD4E
:1033E0009FED0D0A06E010EE101A0C4A914203D927
:1033F0009FED0B0A80ED050A00F014B800000020D4
:1034000000401C4600401C4600401CC600401CC634
:103410000AD7233C0000C8420000C8420000C8C2CE
:103420000000C8C2DFED200AB5EEC00A1F4960EEF9
:10343000200A1F48F0EEE00AFCEEE00AF1EE10FA76
:103440000BDD0B6810EE902A9A63026822F40042AA
:103450000260026842F480420260B5EEC00AF1EEFA
:1034600010FA0BD20B6810EE902A9A63026842F4AD
:1034700000420260026822F48042026010EE102ACC
:103480000C4B9A420FD210EE102A0B4B9A420ADADA
:10349000096800228A63016821F400410160016823
:1034A00021F48041016070470AD71F411C020020AF
:1034B00014040240CDCCCCBDCDCCCC3D1548002170
:1034C000016015480160164A9FED140A506880EDAE
:1034D000000A80ED0E0A80ED020A80ED040A80EDFC
:1034E000030A4162906880ED000A80ED0E0A80EDCB
:1034F000020A80ED040A80ED030A4162D06880ED83
:10350000020A80ED030A80ED060A80ED070A80EDCD
:10351000080A70472404004024080040000000000E
:103520000000002010B500F085FBFFF707FEFFF755
:10353000E5FE1D4C207801281BD1E16891F82C0094
:10354000183191EC030A00F033F8E06890EC020ABD
:10355000606830EE200A80ED000AE06890EC020A14
:10356000A06830EE600A80ED000AFFF7F7FEFFF773
:1035700015FE2078072807D0E0689FED0C0A80ED43
:10358000000A80ED010A10BD606894ED050A80ED27
:10359000000AA06894ED040A80ED000AFFF7DEFE41
:1035A000BDE81040FFF7FABD000000200000000059
:1035B00070B5824C05462DED088BF0EE408AB0EEDA
:1035C000608AB0EE419AE06890ED090A84ED060A3F
:1035D00090ED0A0A84ED080A90ED030A38EE400ADD
:1035E00010EE100AFCF75BFF41EC100B9FED74BB73
:1035F000B0EE4B1AF0EE6B1A01F0FAF9E068B0EE9B
:1036000040AAF0EE60AA90ED020A38EEC00A10EE71
:10361000100AFCF744FF41EC100BB0EE4B1AF0EE31
:103620006B1A01F0E5F9B0EE402AF0EE602A53EC97
:103630001A2B51EC120BFCF719FE41EC100B02F0A7
:10364000E3FB51EC100BFCF73DFFE1689FED5EAB37
:10365000486215B1012D14D029E091ED030A78EEEE
:10366000400A91ED020A38EEC00A00F0AFFFE068B0
:10367000D0ED040A9FED561A50EE010A10EE900AA2
:1036800005E091ED040A39EE400A10EE100AFCF74D
:1036900006FF41EC100BB0EE4A1AF0EE6A1A01F088
:1036A00023F951EC100BFCF70DFFE1688862E0682C
:1036B000484A90ED0A0A10EE101ADFED470A9142CF
:1036C00002D930EE200A06E010EE101A434A914269
:1036D00003DD30EE600A80ED0A0AD0ED091A94EDA0
:1036E000060ADFED3F0A9FED3F2A31EEC00ADFED0B
:1036F0003F2A404A20EE200AC0EE020A9FED3A0A15
:1037000041EE800AC4ED070A90ED0A0A94ED081A0A
:1037100010EE901A30EE411A914261EE222A82EEAA
:10372000821A9FED332A00EE021A84ED091A02DD97
:10373000DFED310A06E010EE901A304A914203D9CB
:10374000DFED2F0AC4ED070A11EE101A2D4A91423F
:1037500002DDDFED2D0A06E011EE101A2B4A914230
:1037600003D9DFED2B0AC4ED090A90F82C10DFED28
:10377000290A59B911EE901A274A914204DD94EDB5
:10378000071A80ED001A01E0C0ED000A10EE101AD1
:10379000224A91420BD210EE101A214A914206DAC7
:1037A00094ED090A80ED010ABDEC088B70BD94ED23
:1037B000090A80ED010AC0ED000AF5E700000020CB
:1037C0000000000000000040000000000080764083
:1037D000E12E6542000034C30000B44300003443CE
:1037E000CDCCCC3D0AD7233CCDCC4C3E5C8F023FA8
:1037F000CDCC4C3F0000484200004842000048C287
:10380000000048C20000204200002042000020C208
:10381000000020C200000000333333400000A0C08D
:103820000000A0407FB500211F4800910191029146
:103830001C4A0391C0E900210124046181600476DF
:1038400080F82010194AC0E90A210325C561C1602A
:1038500080F830404161FDF77DFE08B172B6FEE7A9
:1038600006200095CDE9014069460F48FDF7D4FCDC
:1038700008B172B6FEE7042000900220019069466C
:103880000948FDF7C9FC08B172B6FEE70520CDE98D
:10389000000569460448FDF7BFFC002801D072B658
:1038A000FEE77FBD00200140940100200100000FD1
:1038B0002DE9F04186B014216846FCF7BFFC2C4886
:1038C0000024016841F004010160016801F0040175
:1038D0000591016841F001010160016801F00101F9
:1038E0000591016841F0020101600068214F00F07C
:1038F00002004FF400550590002229463846FEF795
:1039000098F9DFF874804FF4704600223146404643
:10391000FEF78FF900950125CDE901546946384637
:103920000394FEF7B7F8032000901448CDE9010591
:1039300069461348FEF7AEF80096CDE90154694692
:1039400040460394FEF7A6F8002211460620FEF733
:10395000E3F90620FEF7D2F9002211460720FEF710
:10396000DBF90720FEF7CAF906B0BDE8F0810000D8
:1039700030380240000802400004024000002110DC
:103980000000024010B596B000240F9410941194DA
:10399000129413941C2108A81494FCF74FFC2021C6
:1039A0006846FCF74BFC2848264901600421C0E921
:1039B000011440F2E731C0E9031444618461FEF769
:1039C000F5FC08B172B6FEE74FF480500F900FA9D6
:1039D0001D48FEF748FD08B172B6FEE71A48FEF72B
:1039E000C2FF08B172B6FEE7139413A916481494E7
:1039F000FEF79EFC08B172B6FEE76020CDE9080430
:103A00000A940B940C940D94002208A90E480E946D
:103A1000FEF741FF08B172B6FEE700944FF4005084
:103A2000CDE9044002940194039469460648079442
:103A3000FEF754FC08B172B6FEE70348FEF7EAFE53
:103A400016B010BD00000140DC01002010B58EB0A2
:103A500000240794089409940A940B941C21684646
:103A60000C94FCF7EBFB1E484FF0804101600421F1
:103A7000C0E9011440F2E731C0E903148461FEF7A4
:103A800095FC08B172B6FEE74FF48050079007A985
:103A90001348FEF7E8FC08B172B6FEE71048FEF7DF
:103AA00062FF08B172B6FEE70B940BA90C480C94A8
:103AB000FEF73EFC08B172B6FEE76020CDE90004D7
:103AC00002940422694606480494FEF7E4FE08B115
:103AD00072B6FEE70248FEF79DFE0EB010BD000074
:103AE0001C02002010B58CB024216846FCF7A6FB10
:103AF00000241648099414490A94C0E900144FF6AA
:103B0000FF71C0E90241046184610320CDE9000432
:103B10000120CDE902040F210491CDE90540CDE952
:103B2000074169460948FEF709FD08B172B6FEE78C
:103B3000099409A905480A94FEF7FAFB002801D068
:103B400072B6FEE70CB010BD000400405C0200201D
:103B500010B58CB024216846FCF770FB0024164891
:103B6000099414490A94C0E900144FF6FF71C0E9A2
:103B70000241046184610320CDE900040120CDE904
:103B800002040F210491CDE90540CDE907416946C2
:103B90000948FEF7D3FC08B172B6FEE7099409A9FB
:103BA00005480A94FEF7C4FB002801D072B6FEE770
:103BB0000CB010BD000800409C02002010B586B07B
:103BC0000024174800940194029403940494134928
:103BD000059401602921C0E9011440F2E731C0E9F0
:103BE00003148461FEF7E2FB08B172B6FEE74FF4FE
:103BF0008050009069460A48FEF735FC08B172B65D
:103C0000FEE72020CDE9040404A90548FEF790FB57
:103C1000002801D072B6FEE706B010BD000C0040CF
:103C2000DC020020FEE7FEE7183080EC030A704754
:103C30007047000070B5704C704A2DED048B6068C1
:103C4000416A816212684FF40045511A4262C162B2
:103C5000A94202DDA1F58031C162694B994203DAC4
:103C60004942C1F58031C16200EE101AB8EEC01AA7
:103C70009FED640AC1EE000A9FED631A634E60EE89
:103C8000810AC0ED0F0AD0ED0E1A71EEA00AC0ED48
:103C90000E0AA1684A6A8A6236684E62B21ACA621D
:103CA000AA4202DDA2F58032CA629A4203DA524287
:103CB000C2F58032CA6200EE902AF8EEE00AC0EE49
:103CC000801A21EE810A81ED0F0AD1ED0E0A30EE45
:103CD000800A81ED0E0AD0ED0E0A30EEC00ADFED4B
:103CE0004C0A60EE200A9FED4B1A80EE810ADFED50
:103CF0004A0A20EE200A10EE100AFCF7D0FB41EC35
:103D0000100B9FED461B00F0EFFD51EC100BFCF784
:103D1000D9FB00EE100AE16810EE100A414A81ED6D
:103D2000040ADFED410A904202D930EE200A06E093
:103D300010EE100A3D4A904203DD30EE600A81ED3C
:103D4000040A60689FED3A9A90ED0F0AA068D0EDE2
:103D50000F0A30EE200AF6EE000A20EE200A81ED6E
:103D6000050A91ED040A20EE090A10EE100AFCF78C
:103D700096FB41EC100B01F0E3FFE568B0EE408AE2
:103D8000F0EE608A6869FCF78AFB53EC182BFCF7AD
:103D900014FB41EC180BA868FCF781FB53EC182BC3
:103DA000FCF764FAFCF78EFBA86095ED040A20EEA0
:103DB000090A10EE100AFCF772FB41EC100B00F040
:103DC0002FFDE468B0EE408AF0EE608A6069FCF78F
:103DD00066FB53EC182BFCF7F0FA41EC180BE0688B
:103DE000FCF75DFB53EC182BFCF740FAFCF76AFB81
:103DF000E060BDEC048B70BD000000202404004096
:103E00000080FFFF000070459A194C4324080040D1
:103E1000AF236E3F0000E942E12E65420000000042
:103E200000807640000034C30000B44300003443F7
:103E300035FA8E3C704700002DE9F047FDF704FF8E
:103E4000184E307800282BD0174D2878401CC0B26F
:103E50002870192824D3DFF854A001215046FDF71B
:103E6000E3FEDFF84C90134C00274FF001080128C7
:103E700007D189F8008037702078401C207000F04E
:103E800045FB02215046FDF7CFFE012807D189F8F6
:103E9000008037702078401C207000F037FB2F70B6
:103EA000BDE8F087510000205600002000000240CD
:103EB000500000205200002030B593B030216846F9
:103EC000FCF7BCF914210CA8FCF7B8F91D48002434
:103ED000016841F080510160006800F0805011904D
:103EE0001948016821F4404141F400410160006833
:103EF000022500F44040119001200390102004900E
:103F0000009506950820CDE907405420CDE9090524
:103F100004200B906846FEF71DF808B172B6FEE764
:103F20000F20CDE90C058020CDE90E0401210CA85D
:103F30001094FDF723FF002801D072B6FEE713B0FE
:103F400030BD000040380240007000400548016864
:103F500041F47001016003494FF00060803908604E
:103F60007047000088ED00E00148FEF7A0BB0000AC
:103F7000DC020020F0B502681D4B1E4C9F031E4D55
:103F80001E4E984207D0B84205D0A04203D0A842A6
:103F900001D0B04204D122F0700C4A6842EA0C020F
:103FA000984210D0B8420ED0A0420CD0A8420AD0FD
:103FB000B04208D0124CA04205D0124CA04202D010
:103FC000114CA04203D122F44074CA6822434C69C8
:103FD00022F08002224302608A68C2620A6882621A
:103FE000984201D10969016301214161F0BD0000DE
:103FF000000001400004004000080040000C0040A8
:1040000000400140004401400048014010B501F06B
:104010001F030121046A99408C430462016A9A409B
:104020001143016210BD10B5846842EA032224F4F2
:104030007F440A432243826010BD826822F07002EE
:104040000A4342F0070181607047000030B5026A00
:1040500022F001020262026A4368846924F0730557
:104060000C682C4322F002058A682A430A4DA842B4
:104070000BD122F00805CA6823F440732A434D6926
:1040800022F004021D438B692B434360846149681D
:104090004163026230BD00000000014030B5026A99
:1040A00022F010020262026A436884690D6824F4F7
:1040B000E64444EA05248D6822F0200242EA051213
:1040C0000B4DA8420ED1CD6822F0800242EA0512C3
:1040D0004D6923F4406343EA85038D6922F0400271
:1040E00043EA85034360846149688163026230BDAD
:1040F0000000014030B5026A22F480720262036A55
:104100004268C46923F4007324F073050C682C43DF
:104110008D6843EA05230C4DA8420ED1CD6823F4E7
:10412000006343EA05234D6922F4405242EA051236
:104130008D6923F4806342EA05124260C4614968D4
:10414000C163036230BD00000000014030B5026A67
:1041500022F480520262046A4268C3690D6823F443
:10416000E64343EA05238D6824F4005444EA053409
:10417000064DA84204D14D6922F4804242EA8512DC
:104180004260C36149680164046230BD00000140BF
:1041900010B5036A046A24F001040462846924F0FF
:1041A000F00444EA021423F00A020A438461026222
:1041B00010BD10B5036A23F0100303628369046A1B
:1041C00023F4704343EA023224F0A00343EA0111CE
:1041D0008261016210BD10B5806B0021C185C18470
:1041E000FEF715FC10BD70B5846B2068406994F82B
:1041F0003910C0F3C0100025212904D118B1E5847D
:10420000204600F062F82068406994F83A10C0F344
:104210008010222904D118B1E585204600F047F826
:10422000E06B40F01000E0632046FEF7F0FB70BD4D
:1042300010B50146806B09680968C90513D40021CF
:10424000C1850168CA6822F48072CA6001684A693F
:1042500022F001024A6101684A6922F040024A6183
:10426000202180F83A10FEF74DFD10BD10B5806B8F
:10427000FEF71EFF10BD10B50146806B0968096886
:10428000C9050CD40021C18401684A6922F080026A
:104290004A610068C16841F04001C16010BDFEF78D
:1042A00049FF10BD10B5806BFEF745FF10BD0168DA
:1042B000CA6822F49072CA6001684A6922F0010259
:1042C0004A61202180F83A1070470168CA6822F0DC
:1042D000C002CA60202180F83910704710B590F8EC
:1042E0003A10222901D0022010BD8168B1F5805F0B
:1042F00011D00169002901681FD0496801F07F03CE
:10430000816A4A1C82620B70C18D491E0904090C26
:10431000C18518D02BE00269816A002A02685268C0
:1043200005D0D2B20A80816A491C8162ECE7C2F3EF
:1043300008020A80816A891CF7E74A68816A4B1C77
:1043400083620A70E0E70168CA6822F02002CA604E
:104350000168CA6822F48072CA6001684A6922F062
:1043600001024A61202180F83A10FEF7CBFC0020C0
:1043700010BD00002DE9F041044600680169E268C3
:1043800021F44051114301612169A068E2690843A9
:104390006169114308432168CA6849F20C639A4372
:1043A0000243CA6020684169A26921F44071114347
:1043B0004161E069192764253226B0F5004F354A7E
:1043C000354920684FF0000806D0884201D090425D
:1043D00036D1FDF77DFD35E0884201D0904202D113
:1043E000FDF776FD01E0FDF763FD61684A18A0FB6B
:1043F000070148EB0803FBF7E9FE0146B0FBF5F0C7
:104400000201B1FBF5F06FF01803584301EB800097
:1044100006EBC000B0FBF5F000F0F80002EB400244
:10442000B1FBF5F0584301EB800006EBC000B0FB98
:10443000F5F000F00700216810448860BDE8F081C5
:10444000FDF736FD61688B0F8A00A0FB0701FBF7C3
:10445000BDFE0146B0FBF5F06FF01802504301EBD2
:10446000800006EB0010B0FBF5F000F0F002B1FBAD
:10447000F5F002EB0012B1FBF5F06FF018035843B2
:1044800001EB800006EB0010B0FBF5F000F00F0030
:10449000D1E70000001401400010014090F83910ED
:1044A000212901D0022070478168B1F5805F016A3F
:1044B0000BD04A1C0262026809785160C18C491E07
:1044C0000904090CC1840ED017E009880268C1F301
:1044D0000801516001690029016A02D0491C01628A
:1044E000ECE7891CFBE70168CA6822F08002CA6019
:1044F0000068C16841F04001C160002070470000C1
:104500000148FEF785BA00001C03002003488178AB
:10451000022901D300218170704700005000002063
:10452000FEE700000FB4084B10B504A902AA0398D7
:1045300002F02AF9044602A9002002F0C6FA204639
:1045400010BC5DF814FB0000CB6A000803B40198AE
:104550004100009850EAC12018BF04204A0D18BF3E
:1045600040F0010040F2FF72B2EB515F08BF40F033
:104570000200012808BF052002B070474100080270
:1045800018BF04200A0E18BF40F001004FF07F4210
:1045900032EA010108BF40F00200012808BF0520EF
:1045A00070470907090E002804DB00F1E02080F8BD
:1045B0000014704700F00F0000F1E02080F8141D97
:1045C0007047000000487047B000002010EE100A4D
:1045D00010B510EE901A4FF0684202EB40032DED3B
:1045E000028BB3F1654F3CBF02EB4102B2F1654F64
:1045F0007CD200BFC0F3C753C1F3C7529A1A1B2A1B
:1046000009DD10F0004F14BF9FED6E0A9FED6E0A9A
:10461000BDEC028B10BD12F11A0F1BDA11F0004F26
:1046200009D010F0004F0CBF9FED680A9FED680A9B
:10463000BDEC028B10BD80EE208A18EE100AFFF749
:104640009DFF042808BF02F081F8B0EE480ABDECD7
:10465000028B10BD4200B2EB410F37D910F0004F72
:1046600019BFDFED5C1A9FED5C1ADFED5C1A9FED60
:104670005C1AB0EE602A0A46F1EE400A80F0004172
:10468000B0EE420A10460A1A5200B2F1807F34D2CC
:10469000484010F0004FDFED532A9FED533A1DBF05
:1046A000BEEE002A71EEE21A31EE431AB6EE002A8F
:1046B00004BF71EEA21A31EE031AF0EE402A42EE68
:1046C000602A40EE020A82EEA02A18E011F0004FA4
:1046D00004BF9FED461AF0EE411AD4D010F0004FFF
:1046E0001CBFDFED431A9FED431A00E026E004BF34
:1046F000DFED411A9FED411AC5E780EE202A22EE38
:10470000020ADFED3F0ADFED3F2ABDEC028B40EEEF
:10471000202ADFED3D0A40EE220ADFED3C2A40EE82
:10472000202ADFED3B0A40EE220A22EE000A00EECC
:10473000201A31EE020A30EE210A10BD4FF07F42FE
:10474000B2EB400F28BFB2EB410F05D2BDEC028B9C
:10475000BDE8104001F0E6BF40EA01035B0008BF7E
:1047600041F0FF410BD0B2EB400F08BFB2EB410F5D
:1047700008D120F0804000EE100A21F0804100EEC8
:10478000901A37E7B2EB400F12BF5FEA410240F0E8
:10479000FF4001F000413FF42DAF4A0092EA400390
:1047A0003FF528AF002AACBF9FED1A1A9FED1A1AE9
:1047B00020EE010A60EE810A10EE100A10EE901A47
:1047C00018E70000DB0FC9BFDB0FC93FDB0F494013
:1047D000DB0F49C00000C9BF22AAFDB90000C93FD4
:1047E00022AAFD390060ED3EC30ACE37000000006A
:1047F000000049C022AA7DBA0000494022AA7D3AA1
:104800002DAD65BD8FB8D53D0FB511BE61C84C3E0D
:10481000A8AAAABE0000804F0000802F0000000060
:1048200010B52F499FED2C1B2DED020B84B0059880
:1048300020F000408842D8BF9DED040B2DDD2949B2
:10484000884209D1049840B94FF0010001F096FF69
:1048500001F02EFF06B010BD05DB9DED040B01F04D
:1048600013FF06B010BD68469DED040B01F00CFB74
:1048700010F0030004BF9DED021B9DED000B0CD05A
:1048800001280ED09DED021B9DED000B022817D0D4
:10489000012001F049FE06B010BD01F011FD06B087
:1048A00010BD9DED021B9DED000B012001F03CFEB3
:1048B00051EC100B81F0004106B041EC100B10BD23
:1048C00001F0FEFC51EC100B81F0004106B041EC10
:1048D000100B10BD000000000000000000000000F0
:1048E000FB21E93F0000F07F10B52DED040B86B0F1
:1048F0009DED060B10EE100A10EE901A8DED000BD8
:10490000002818BF0120084320F00040C0F17F605C
:1049100000F1E040C00F21D19DED080B10EE101A00
:1049200010EE900A8DED000B002918BF01210843FD
:1049300020F00040C0F17F6000F1E040C00F0DD1D9
:1049400029490798B1EB400F04BF0698002842D0D0
:104950000998400004BF089800283CD09DED080B42
:1049600053EC102B9DED060B51EC100BFBF7CEFF1B
:10497000CDE902019DED020B40F2FF7110EE900AAD
:104980008DED000B31EA105021D00798039900F00B
:10499000004001F00041884219D09DED080B8DEDDB
:1049A000040B9DED020B8DED000B10EE900A0599A6
:1049B00061F31E0005909DED041B9DED020B51EC73
:1049C000110B53EC102BFBF7F5FCCDE902019DED2B
:1049D000020B0AB010BD012001F0D0FE0AB0BDE804
:1049E000104001F065BE00000000E0FF0000000084
:1049F0002DE9F04D2DED040B2DED0E8B96B0DDE97C
:104A00002550279CDDF890A025F0004624F00048B2
:104A1000BAF1000F14BF0121002101EB4502FC494E
:104A200053184A1093422AD3002814BF01230023AD
:104A300003EB44030B44F7498B4220D358EA0001AF
:104A40009FEDF59B76D0DFF8D8B35D4503D1BAF181
:104A5000000F05D188E0BAF1000F08BF002100D097
:104A6000012101EB450111F5001F08D8002814BFF2
:104A70000121002101EB440111F5001F0BD99DED2F
:104A8000261B9DED240B16B0BDEC0E8B04B0BDE8CB
:104A9000F04D01F003BE0027002DBCBFE149884561
:104AA00021DAE1498845A8BF02271CDAC3451ADC90
:104AB000DE4901EB2851142908DDC1F1340220FA46
:104AC00002F101FA02F282420DD108E058B9C1F1B7
:104AD000140228FA02F101FA02F2424503D101F070
:104AE0000101C1F1020756EA0A0124D1002C22DAA1
:104AF000002D18BF022F01D0012F0AD0022001F093
:104B00003DFE16B0BDEC0E8B04B0BDE8F04D01F0DB
:104B1000A3BD022001F032FE01F09EFD51EC100B0E
:104B200081F0004141EC100B16B0BDEC0E8B04B0CF
:104B3000BDE8F08D18E09FEDBEAB9FEDBF8B002868
:104B400071D1B848804522D105F1804010F5801020
:104B500008BFBAF1000F07D0B3450ADC002CA8BF8C
:104B60009DED260BE0DA0DE0B0EE490AF0EE690AA1
:104B7000DAE7002C06DA9DED260B51EC100B81F0E4
:104B800000416FE0AE48784490ED000BCCE7D8458B
:104B90004DD1002C48DA2EB186423AD1BAF1000F3D
:104BA00042D126E0BAF1000F13D0022001F0E6FD59
:104BB00001F08EFD8DED020B9DED240B8DED000BB4
:104BC00010EE900A039961F31E0003909DED020B15
:104BD000AAE78DED02AB9DED240B1AEE901A10EEB4
:104BE000900A8DED000B61F31E0003909DED020B0A
:104BF0009AE78DED028B9DED240B18EE901A10EEC6
:104C0000900A8DED000B61F31E0003909DED020BE9
:104C10008AE709DA9DED240B51EC190B53EC102BAC
:104C2000FBF79DFD1EE020E09DED240B7CE7864216
:104C30001BDAB4F1804F0DD0A4F10050B0F1FF5059
:104C400013D1002D11DB9DED240B51EC100B01F065
:104C5000EDFF07E09DED240B53EC102B51EC100BF6
:104C600000F0C2BC41EC100B5EE79DED240B51EC53
:104C7000100B01F02FFFBAF1000FCDE90E0142D168
:104C80009FED710B46B3A6F1E040B0F17F600CD010
:104C90005E4538D1002D00DAA7B3022F0CBF0120EA
:104CA0004FF0FF30FBF775FEDCE7002D01DD002C37
:104CB0000DDA002D01DD002C1FDB002D16DA002C93
:104CC00014DB012F08BF9FED620B3FF42DAFB0EE58
:104CD0004A0AF0EE6A0A27E7022F18BF002D0CD00F
:104CE000012F0AD1002DFFF61FAF06E0002DB8BF3F
:104CF000002C08DA012F3FF417AFB0EE480AF0EEAF
:104D0000680A11E71BE0012000EBE57050EA07019B
:104D100015D0791EB0EE498AF0EE698A084308BFC3
:104D20009FED4D8B4E480025804570DD4D494E4826
:104D3000884514DDB0420DDB002C19DB2FE001208B
:104D400001F01CFD16B0BDEC0E8B04B0BDE8F04DBB
:104D500001F0AEBCB34502DC002C09DC1FE086424A
:104D600002DA002C1BDA03E05E452BDD002C16DD99
:104D7000022001F003FD01F0ABFC8DED020B53ECC2
:104D80001A2B51EC180BFBF718FBCDE90001039926
:104D9000019861F31E0003909DED020BC4E6022012
:104DA00001F0ECFC01F0A4FC10EE901A18EE900A51
:104DB0008DED020B8DED008B61F31E0003909DEDD8
:104DC000020BB1E69DED0E0B53EC192B51EC100BC1
:104DD000FBF7EDFA9FED260BCDE9080153EC102B04
:104DE0009DED080B51EC100BFBF7E7FA9FED221B32
:104DF00053EC112BFBF7DEFA9DED081B53EC112B46
:104E0000FBF7DBFA9FED1E1B53EC112B3CE08CE013
:104E1000FFFF1F00FFFF0F00000000000000F03F39
:104E20000000F03F0000F07F0000404301FCFFFF66
:104E3000000000000000F07F000000000000000003
:104E40002E23000000000000000000000000008091
:104E5000000000000000F0FF000000000000F0BFB4
:104E60000000E0410000F043FFFFEF3F00000000C2
:104E7000000000000000D03F555555555555D53F11
:104E8000000000000000E03FFBF794FA9DED080BE6
:104E900041EC1A0B53EC102B51EC100BFBF78DFA75
:104EA00053EC1A2BFBF789FA41EC1A0B9FEDFE0B22
:104EB00053EC102B9DED080B51EC100BFBF77DFA1A
:104EC00041EC1B0B9FEDFA0B51EC1A0B53EC102B22
:104ED000FBF773FA41EC1A0B9FEDF70B53EC102B19
:104EE0009DED080B51EC100BFBF767FA53EC1A2BF6
:104EF000FBF75DFA41EC1A0B51EC1B0B53EC1A2B30
:104F0000FBF7B4F90690CDE906519DED060B53EC85
:104F10001B2B51EC100BFBF74AFA53EC1A2BFBF747
:104F200049FA41EC100B00F0A1B90020B6F5801F42
:104F30000EDA9FEDE30B53EC102B9DED0E0B51ECB5
:104F4000100BFBF73AFACDE90E016FF034000E4674
:104F500000EB2650A0F2FF37C6F31300DA4940F009
:104F60007F6646F040568842D8BF002408DDD74906
:104F70008142C8BF012403DC0024A6F580167F1CF3
:104F8000D348784400EBC4000F9690ED00CB9DED24
:104F90000E0B53EC1C2B51EC100BFBF708FA9DED9C
:104FA0000E0B41EC1B0B53EC1C2B51EC100BFBF7C5
:104FB0005DF941EC100B51EC190B53EC102BFBF786
:104FC000CEFB41EC1D0B51EC1B0B53EC1D2BFBF7E7
:104FD000F4F941EC1A0BBF488DED10AB78441095F5
:104FE00090ED000B4FF0005040EA660000EB84406B
:104FF0008DED080B00F5002009909DED080B53EC9A
:105000001C2B51EC100BFBF7D2F99DED0E1B53EC52
:10501000112BFBF7CFF941EC100B53EC102B9DED4E
:10502000100B51EC100BFBF7C8F99DED080B41EC90
:105030001C0B53EC102B9DED100B51EC100BFBF7E0
:10504000BCF953EC1B2BFBF7B5F953EC1C2BFBF70E
:10505000AEF953EC1D2BFBF7B0F941EC1C0B53ECF4
:105060001A2B51EC1A0BFBF7A8F941EC1B0B9A48D1
:105070000621B0EE4B0AF0EE6B0A784401F0D8F945
:10508000B0EE401AF0EE601AB0EE41DAF0EE61DAFE
:1050900053EC1B2B51EC1B0BFBF78FF953EC1D2B27
:1050A000FBF78BF99DED100B41EC1B0B53EC1A2B0E
:1050B00051EC100BFBF7DAF853EC1C2BFBF77DF9E6
:1050C00053EC1B2BFBF7D2F89DED100B41EC1B0BA7
:1050D00053EC102B51EC100BFBF76FF941EC1D0B4F
:1050E0009FED7FEB53EC1E2BFBF7C0F853EC1B2B13
:1050F000FBF7BCF80890CDE908519DED080B53EC87
:105100001E2B51EC100BFBF752F953EC1D2BFBF748
:105110004EF953EC1B2BFBF74DF99DED080B41ECC1
:105120001D0B53EC102B9DED100B51EC100BFBF7EE
:1051300044F941EC1B0B53EC1A2B51EC1D0BFBF704
:105140003CF99DED080B41EC1A0B53EC102B51EC84
:105150001C0BFBF732F953EC1A2BFBF787F841ECE9
:105160001A0B51EC1B0B53EC1A2BFBF77FF80C902E
:10517000CDE90C519DED0C0B53EC1B2B51EC100B9E
:10518000FBF715F953EC1A2BFBF714F941EC1B0B49
:105190009FED550B53EC102B9DED0C0B51EC100BB0
:1051A000FBF70BF941EC1A0B9FED510B51EC1B0B6C
:1051B00053EC102BFBF701F941EC1B0B9FED4E0B51
:1051C00053EC102B9DED0C0B51EC100BFBF7F5F88D
:1051D00053EC1B2BFBF74AF841EC100B4848784482
:1051E00000EBC40090ED001B51EC100B53EC112BA5
:1051F000FBF73CF841EC1B0B3846FBF7CAFBCDE94B
:10520000080153EC1B2B51EC1A0BFBF72FF841EC68
:10521000100B3C48784400EBC40090ED00CB51ECFF
:10522000100B53EC1C2BFBF721F89DED081B53ECE6
:10523000112BFBF71BF80690CDE906519DED080BED
:1052400053EC102B9DED060B51EC100BFBF7AFF858
:1052500053EC1C2BFBF7ABF853EC1A2BFBF7A7F81E
:1052600053EC1B2BFBF7A6F841EC100B9DED261B16
:1052700053EC102B8DED001B00959DED260B51EC92
:10528000100BFBF79AF89DED000B41EC1A0B53EC59
:10529000102B9DED260B51EC100BFBF788F89DEDC4
:1052A000061B53EC112B2FE0000000604715F73F61
:1052B000FE822B654715F73F44DF5DF80BAE543E89
:1052C00000000000000040438E9803007AB60B00F7
:1052D0003A1D0000D81E0000721C000000000000F3
:1052E0000000000000000840000000E009C7EE3F99
:1052F000FD033ADC09C7EE3FF5015B14E02F3EBE2B
:10530000FE1A0000B81A0000FBF757F853EC1A2BEE
:10531000FAF7ACFF9DED060B41EC1A0B53EC102B8A
:105320009DED000B51EC100BFBF747F8CDE90C019C
:105330009DED0C0B51EC1A0B53EC102BFAF796FF6A
:10534000CDE902010C46AA498C422FDB611A0843C1
:1053500018D19DED0C0B53EC102B9DED020B51EC75
:10536000100BFBF724F841EC1B0B9FEDA30B51EC4A
:105370001A0B53EC102BFAF779FF53EC1B2BFBF7AE
:1053800019FB2DD2022001F0F9F901F0A1F910EE7C
:10539000901A18EE900A8DED020B8DED008B61F3E3
:1053A0001E0003909DED020BFFF7BEBB944A24F054
:1053B0000041914214D39349214408437FF4EFAC58
:1053C0009DED0C0B53EC102B9DED020B51EC100BD3
:1053D000FAF7EDFF53EC1A2BFBF7ECFA7FF6DFAC94
:1053E00024F000408849894A002601EB205182427E
:1053F0002BDA481C4FF4801121FA00F02044844A33
:10540000C0F30A517A44A1F2FF3192ED000B814AB8
:105410008DED080BCA4020EA0202C0F3130040F4ED
:105420008010C1F1140120FA01F60992002CB8BFD6
:1054300076429DED080B53EC102B9DED0C0B51ECBF
:10544000100BFAF7B4FFCDE90C019DED0C0B51ECFC
:105450001A0B53EC102BFAF709FF9FED6F0B089016
:10546000CDE9085153EC102B9DED080B51EC100BBE
:10547000FAF7A3FF41EC1B0B9FED690B53EC102BCC
:105480009DED080B51EC100BFAF797FF9DED0C0BFF
:1054900041EC1C0B53EC102B9DED080B51EC100B49
:1054A000FAF785FF53EC1A2BFAF784FF9FED5E1B8A
:1054B00053EC112BFAF781FF53EC1C2BFAF7D6FEB5
:1054C00041EC1A0B51EC1B0B53EC1A2BFAF7CEFEE6
:1054D000CDE902019DED020B53EC1B2B51EC100B9F
:1054E000FAF765FF53EC1A2BFAF764FF9DED020BF8
:1054F00041EC1A0B53EC102B51EC100BFAF75DFF3B
:10550000CDE908014A489DED080B0521784400F0DB
:105510008FFF9DED081B51EC100B53EC112BFAF78C
:105520004CFF9DED021B53EC112BFAF743FFCDE925
:1055300006019DED020B53EC1A2B51EC100BFAF700
:105540003CFF53EC1A2BFAF791FE9FED3B0B41EC1D
:105550001A0B53EC102B9DED060B51EC100BFAF7C8
:1055600026FF9DED060B41EC1B0B53EC102B9DED24
:10557000020B51EC100BFAF720FF53EC1B2BFBF73F
:10558000EEF853EC1A2BFAF712FF9DED021B53ECC9
:10559000112BFAF70CFF53EC192BFAF70BFFCDE99F
:1055A000020101EB065001150029C8BF039015DC6C
:1055B0009DED020B324651EC100BFBF73FF9FEF765
:1055C000C5FF042808BF01F093F832469DED020B99
:1055D00051EC100BFBF732F9CDE902019DED020B06
:1055E00051EC180B53EC102BFAF7E7FEFFF73ABB20
:1055F0000000904000000000FE822B654715973C9C
:1056000000CC904000346F3F01FCFFFF0000E03F02
:10561000B01A0000FFFF0F0000000000432EE63F1D
:10562000396CA80C615C20BEEF39FAFE422EE63FD1
:105630001018000000000000000000000000004002
:1056400010B510EE100A2DED068BB7EE001A10EE15
:10565000901AB0EE418A0022A0F5000CDFEDFE9A10
:105660004FF00073BCF1FE4F4FF07F4403EB410C51
:1056700080F0B481BCF1804FC0F02082F749014432
:105680009FEDF73AB1F5005F40F2D48200F580213A
:10569000CB0C03F00F0101EE901AC3F307137F3B0D
:1056A000A0EBC350B8EEE12A00EE100A1A44DFED79
:1056B000ED2AF0EE411A42EE221AF0EE613A70EE57
:1056C000232A30EE632A12EE900A00F500606FF391
:1056D0000B0001EE900A73EEE13A33EE804AC1EE20
:1056E000223A22EE230A10EE100A00F500606FF352
:1056F0000B0000EE100A00EE612A00EE442A62EE72
:10570000232A70EE221A21EEA12ADFEDD73A02EE0B
:10571000233A23EE023A20EE012A22EE811A03EE0A
:10572000211A32EE010A10EE100A00F500606FF344
:105730000B0000EE100A72EE401A31EE812A9FED46
:10574000CB1A60EE011A9FEDCA1A20EE011A9FEDE6
:10575000C90A02EE001A31EE810A10EE100A00F5B5
:1057600000606FF30B0000EE100AC34871EEC01A20
:1057700031EE812A784400EBC10090ED003AD0ED83
:10578000011A100101EE100AF8EEC12A32EE211AB8
:1057900031EE001A31EE031A31EE221A11EE100A20
:1057A00000F500606FF30B0009EE100A39EE621A83
:1057B00031EE431A31EE400A30EE610A32EE40AA71
:1057C00010EE900A002100F500606FF30B0008EE68
:1057D000900A084670EEE8AAFBF704F929EE280AB9
:1057E00000F00C01F0EEC00A10EE900AB0F18B4F01
:1057F0000DDD10EE900AB4EB400F08D310EE100A46
:105800004FF08B4262F31E0008EE900A13E069EE3F
:105810002A0A38EEAA1A4AEE010A30EE201A11EED0
:10582000100A00F500606FF30B0008EE900A30EEEE
:10583000680A70EE209A0C20FBF7D4F838EEA90A1B
:10584000B5EEC00AF1EE10FA34BFFEEE000AF6EE35
:10585000000A30EE800ABDEEC00A10EE100A0111F7
:1058600000EE101AF8EEC00A00EE100AB8EEC00AF8
:1058700038EEC00A30EE290ADFED801A9FED801A5B
:1058800000EE211ADFED7F1A7F4900F00F0040EE95
:10589000011A21EE800A794401EB800191ED001A92
:1058A0007A49794401EB8001D1ED001A784901EE83
:1058B000801A794401EB8000764990ED000A31EEC0
:1058C000001AB0EEE00A10EE100A884215DA10EE67
:1058D000100AB4EB400F10D39FED6F0A30EE800A30
:1058E000DFED6E0A20EE200A68EE010ABDEC068BA1
:1058F000BCEEC00A20EE200A10BD10EE100A684966
:10590000884243DA10EE100AB4EB400F3ED3BDEEEE
:10591000E00A68EE010A10EE100A00EBD072511096
:10592000C90501F17E5100EE101AA0EB6200C0051E
:1059300060EE200A00F17E5000EE100A60EE808AD0
:1059400018EE900AB4EB400F0FD1022000F016FFC2
:1059500000F0F4FE10EE101A18EE100ABDEC068BE3
:1059600061F31E0000EE100A10BD18EE900A400010
:1059700011D018EE900AFEF701FE042808BF00F0CF
:10598000E5FEB0EE680ABDEC068B10BDF5EEC00A70
:10599000F1EE10FA0FD2022000F0F0FE00F0D6FE79
:1059A00010EE101A18EE100ABDEC068B61F31E0003
:1059B00000EE100A10BD022000F0E0FE00F0BEFE76
:1059C00010EE101AB0EE480A10EE100ABDEC068B6D
:1059D00061F31E0000EE100A10BD00BFBCF1804F45
:1059E0006CD300BF00F1FF43B3F1FE4F24D200BFE0
:1059F000B0EEC00A10EE100AC1F3C7537F2B0DDBC7
:105A0000972BBFF63BAEC3F196034FF0010C0CFA97
:105A100003F3A3F1010C1CEA010F08D0012000F0F0
:105A2000ADFEBDEC068BBDE8104000F07FBE0B4222
:105A300018BFBFEE008A21E643001CBF4FF0807301
:105A4000B3EB400F34D96FF01A02DFED161A20EED7
:105A5000210A10EE100A27E000000000001080C0AC
:105A6000ABAAAA3E0000803D7EE24C3E00B0384228
:105A7000D49AB8BB3BAA3842D0150000FC59633712
:105A8000C9FF753A1872313D6E150000A21500006D
:105A9000121500000000FC420000FE420000004B16
:105AA000000040430000004D10F0004FA0D1E5E59C
:105AB000A0F50003B3F1FE4F21D2DFE503EB410374
:105AC000B3F1007F11D3F5EEC00AF1EE10FA05D163
:105AD000430018BFB4EB400F76D883E701F00041D4
